:1000000000020020950900000D0A0000150A0000FA
:100010001D0A00001D0A00001D0A0000000000006B
:100020000000000000000000000000001D0A0000A9
:100030001D0A0000000000001D0A00001D0A00004B
:100040001D0A00001D0A00001D0A00001D0A000014
:100050001D0A00001D0A00001D0A00001D0A000004
:100060001D0A00001D0A00001D0A00001D0A0000F4
:100070001D0A00001D0A00001D0A00001D0A0000E4
:100080001D0A00001D0A00001D0A00001D0A0000D4
:100090001D0A00001D0A00001D0A00001D0A0000C4
:1000A0001D0A00001D0A00001D0A00001D0A0000B4
:1000B0001D0A00001D0A00001D0A00001D0A0000A4
:1000C0001D0A00001D0A00001D0A00001D0A000094
:1000D0001D0A00001D0A00001D0A00001D0A000084
:1000E0001D0A00001D0A00001D0A00001D0A000074
:1000F0001D0A00001D0A00001D0A00001D0A000064
:100100001D0A00001D0A00001D0A00001D0A000053
:100110001D0A00001D0A00001D0A00001D0A000043
:100120001D0A00001D0A00001D0A00001D0A000033
:100130001D0A00001D0A00001D0A00001D0A000023
:1001400000000000000000000000000000000000AF
:100150001D0A00001D0A00001D0A00001D0A000003
:10016000000000000000000000000000000000008F
:10017000000000000000000000000000000000007F
:10018000000000000000000000000000000000006F
:10019000000000000000000000000000000000005F
:1001A000000000000000000000000000000000004F
:1001B0001D0A00001D0A00001D0A00001D0A0000A3
:1001C0001D0A00001D0A00001D0A00001D0A000093
:1001D0001D0A00001D0A00001D0A00001D0A000083
:1001E0001D0A00001D0A00001D0A00001D0A000073
:1001F0001D0A00001D0A00001D0A00001D0A000063
:100200001D0A00001D0A00001D0A00000000000079
:100210001D0A00001D0A00001D0A00001D0A000042
:100220001D0A00001D0A00001D0A00001D0A000032
:100230001D0A00001D0A00001D0A00001D0A000022
:100240001D0A00001D0A00001D0A00001D0A000012
:100250001D0A00001D0A00001D0A00001D0A000002
:100260001D0A00001D0A00001D0A000080B500AF35
:100270004EF20813C4F20F034EF20812C4F20F023A
:10028000126842F008021A604EF20813C4F20F031B
:100290004EF20812C4F20F02126842F010021A6005
:1002A0004EF20813C4F20F034EF20812C4F20F020A
:1002B000126842F002021A604EF20813C4F20F03F1
:1002C0001A6840F20423C2F200031A604FF4E843B4
:1002D000C4F20003FF221A6047F21C53C4F2000369
:1002E000FF221A6047F22043C4F2000347F2204283
:1002F000C4F20002126822F0FF021A604FF4A84311
:10030000C4F200034FF4A842C4F20002126842F0A3
:100310000F021A6045F22043C4F2000345F2204266
:10032000C4F20002126822F00F021A6045F21C5358
:10033000C4F2000345F21C52C4F20002126842F0FB
:100340000F021A604FF48843C4F20203FF221A60BE
:1003500044F21C53C4F20203FF221A60282000F06A
:100360006DF80C2000F06AF800F0BEF8062000F0EE
:1003700065F880BD80B584B000AF786056E07B68DA
:100380005A1C7A601B78FB7347F2FC33C4F20003FB
:1003900047F2FC32C4F20002126842F001021A6015
:1003A0004FF4C87000F0ECFB44F2FC33C4F20203DB
:1003B000FA7B1209D2B21A604CF2503000F0E0FB26
:1003C00047F2FC33C4F2000347F2FC32C4F20002ED
:1003D000126842F002021A6047F2FC33C4F20003D2
:1003E00047F2FC32C4F20002126822F002021A60E4
:1003F00044F2FC33C4F20203FA7B1A6047F2FC3386
:10040000C4F2000347F2FC32C4F20002126842F068
:1004100002021A6047F2FC33C4F2000347F2FC32D6
:10042000C4F20002126822F002021A607B681B7894
:10043000002BA4D11037BD4680BD00BF80B582B06F
:1004400000AF0346FB7147F2FC33C4F2000347F2EE
:10045000FC32C4F20002126822F001021A604FF46A
:10046000C87000F08DFB44F2FC33C4F20203FA7949
:100470001209D2B21A6047F2FC33C4F2000347F209
:10048000FC32C4F20002126842F002021A6047F223
:10049000FC33C4F2000347F2FC32C4F200021268DB
:1004A00022F002021A6044F2FC33C4F20203FA7929
:1004B0001A6047F2FC33C4F2000347F2FC32C4F284
:1004C0000002126842F002021A6047F2FC33C4F2E2
:1004D000000347F2FC32C4F20002126822F002026A
:1004E0001A600837BD4680BD80B582B000AF0023DA
:1004F0007B6013E07B68DAB24FF68F73CFF6FF7341
:100500009B1ADBB21846FFF799FF40F6FC40C0F299
:100510000000FFF72FFF7B6801337B607B680F2BA8
:10052000E8DD00233B6013E03B68DAB24FF6CF739F
:10053000CFF6FF739B1ADBB21846FFF77FFF40F63A
:10054000FC40C0F20000FFF715FF3B6801333B6041
:100550003B680F2BE8DD43F6982000F011FB0837CD
:10056000BD4680BD80B58EB000AFFFF77FFEFFF7C0
:10057000BBFF40F60053C0F20003BB6240F60C53D1
:10058000C0F200037B624FF4D060C0F2402000F064
:10059000FBFA0120C0F2100000F0C4FA4FF4004052
:1005A000C4F2030001210022E02300F061FA4FF4BD
:1005B0000040C4F20300012100F053FA4FF4004060
:1005C000C4F20300012100F048FA4FF40040C4F2E5
:1005D0000300012100F099FA08E03B1D4FF40040B0
:1005E000C4F2030001211A4600F07FFA4FF40040E4
:1005F000C4F203000121002200F014FA0346002B8C
:10060000EBD07A68D3179B0F1A4402F00302D31A77
:100610001A4640F20023C2F200031A6040F200239F
:10062000C2F200031B68002B41D145F2FC33C4F237
:10063000000345F2FC32C4F20002126842F00102EB
:100640001A6045F2FC33C4F2000345F2FC32C4F2F6
:100650000002126822F002021A6045F2FC33C4F272
:10066000000345F2FC32C4F20002126822F00402D8
:100670001A6045F2FC33C4F2000345F2FC32C4F2C6
:100680000002126822F008021A608020FFF7D6FEEE
:10069000B86AFFF76FFE4FF43450C0F2311000F02B
:1006A0006FFAC020FFF7CAFE786AFFF763FE40F2D8
:1006B0000023C2F200031B68012B44D145F2FC3336
:1006C000C4F2000345F2FC32C4F20002126842F0A8
:1006D00002021A6045F2FC33C4F2000345F2FC3218
:1006E000C4F20002126822F001021A6045F2FC33E3
:1006F000C4F2000345F2FC32C4F20002126822F098
:1007000004021A6045F2FC33C4F2000345F2FC32E5
:10071000C4F20002126822F008021A608020FFF77B
:100720008DFEC020FFF78AFE786AFFF723FE4CF2A9
:100730008030C0F2C91000F023FA8020FFF77EFE5F
:10074000B86AFFF717FE40F20023C2F200031B68ED
:10075000022B69D145F2FC33C4F2000345F2FC32AE
:10076000C4F20002126842F004021A6045F2FC333F
:10077000C4F2000345F2FC32C4F20002126822F017
:1007800001021A6045F2FC33C4F2000345F2FC3268
:10079000C4F20002126822F002021A6045F2FC3331
:1007A000C4F2000345F2FC32C4F20002126822F0E7
:1007B00008021A6000237B6313E08020FFF73EFEEF
:1007C0007B6BC3F10A03BA6A13441846FFF7D2FDE4
:1007D00044F24020C0F20F0000F0D2F97B6B0133ED
:1007E0007B637B6B0A2BE8DD4FF43450C0F2311091
:1007F00000F0C6F900237B6313E0C020FFF71EFE64
:100800007B6BC3F109037A6A13441846FFF7B2FD04
:1008100044F24020C0F20F0000F0B2F97B6B0133CC
:100820007B637B6B092BE8DD40F20023C2F20003FF
:100830001B68032B40F0A48045F2FC33C4F2000394
:1008400045F2FC32C4F20002126842F008021A605B
:1008500045F2FC33C4F2000345F2FC32C4F200025C
:10086000126822F001021A6045F2FC33C4F2000360
:1008700045F2FC32C4F20002126822F002021A6051
:1008800045F2FC33C4F2000345F2FC32C4F200022C
:10089000126822F004021A6000237B6330E0002318
:1008A0003B6313E03B6BDAB24FF68F73CFF6FF7307
:1008B0009B1ADBB21846FFF7C1FD40F6FC40C0F2C0
:1008C0000000FFF757FD3B6B01333B633B6B0F2B86
:1008D000E8DD7B6BDAB24FF68F73CFF6FF739B1AAE
:1008E000DBB21846FFF7AAFDB86AFFF743FD44F2F2
:1008F0004020C0F20F0000F043F97B6B01337B63B3
:100900007B6B0F2BCBDD4FF43450C0F2311000F075
:1009100037F900237B6330E00023FB6213E0FB6ABE
:10092000DAB24FF6CF73CFF6FF739B1ADBB21846DD
:10093000FFF784FD40F6FC40C0F20000FFF71AFD0F
:10094000FB6A0133FB62FB6A0F2BE8DD7B6BDAB2DB
:100950004FF6CF73CFF6FF739B1ADBB21846FFF743
:100960006DFD786AFFF706FD44F24020C0F20F00EB
:1009700000F006F97B6B01337B637B6B0F2BCBDDC8
:100980004CF28030C0F2C91000F0FAF8FFF7ACFD6D
:1009900014E600BF80B582B000AF40F62453C0F229
:1009A00000037B6040F20003C2F200033B6007E0FB
:1009B0003B681A1D3A607A68111D796012681A60E6
:1009C0003A6840F20003C2F200039A42F0D30D48A5
:1009D0000D494FF000028842B8BF40F8042BFADB03
:1009E0004EF68853CEF200034EF68852CEF2000245
:1009F000126842F470021A60FFF7B4FD0837BD4672
:100A000080BD0000000000200802002080B400AF7C
:100A1000FEE700BF80B400AFFEE700BF80B400AFC8
:100A2000FEE700BF3AB1C3684FF0011010FA01F1C0
:100A300001EA0300704743680120884040F4803099
:100A4000184010F4803F07D04FF4803340F47020FA
:100A500013FA01F120EA0100704701238B40C360C3
:100A60007047036801228A4042EA0303036070472B
:100A700002314901F0B592000F260D589640F64319
:100A800003F00F07974006EA05053D430C180D508B
:100A900003F47061A069090A3040914040EA010105
:100AA000A161606803F0F00109099140304040EA1B
:100AB000010113F4702F61600FD0616903F4E0232A
:100AC0001B0C934001EA06061E436661236901215F
:100AD00011FA02F243EA020205E02369012111FA48
:100AE00002F223EA02022261F0BD02314901091833
:100AF000002003E08B6842F8043B0130CB6813F41C
:100B0000807F01D10828F5D17047826A0B0C1B0445
:100B100042EA030301F00F01012212FA01F10B4333
:100B20008362704700F07043B3F1704F15D100F449
:100B30007F42114B120A00F0FF00D318800003F02F
:100B4000704240F0007023F07F43104323F47003A1
:100B500040EA431301221A607047020F074B53F813
:100B6000223081B200F4F8101A68000C11FA00F07B
:100B700010431860704700BF00E60F40180D0000DA
:100B80000138FDD170470000534B1A6812F0E04F56
:100B90002DE9F041044606D01A68504B02EA0303DF
:100BA000B3F1805F02D1002CC0F294804C494D4AD1
:100BB0000B68166843F4006323F4800546F400666E
:100BC00013F0020F0D60166002D014F0020F05D072
:100BD00015F0010F1AD014F0010F17D164F00303C0
:100BE0001D403F4B002E1D6005DA06F07003302BD0
:100BF00005D0702B02E005F03003302B02D14FF40A
:100C0000805001E04FF40020FFF7BAFF04F4FE63C8
:100C100025F4FE6545EA0308334D324F26F00046C1
:100C200004EA050526F0700645EA060604F0080504
:100C300046EAC5052A4E1020C6F800803D60FFF741
:100C40009FFF28F4405804F40052284904F440530C
:100C500025F4005548EA030340201543244A086060
:100C600052BF33603D60336023F0F86304EA020250
:100C700023F0030358BF3D60134304F0FC5125F0FB
:100C8000FC5214F0804F42EA010208D0194922F4C4
:100C9000800204EA010143F480030A4301E022F0E8
:100CA000804214F4006F0CD14FF4004112480068E8
:100CB00010F0400F01D10139F8D123F4006322F480
:100CC000006207490B60074B10201A60BDE8F04135
:100CD000FFF756BFBDE8F08100E00F400000FF7055
:100CE00060E00F4070E00F403000008058E00F409F
:100CF0000300C0070000404050E00F40200000000B
:100D00004B4F4341454C4920554E490053414D45B9
:100D100054204B4F4341000000E10F4004E10F40DD
:040D200008E10F4097
:00000001FF
